:020000040800F2
:100000000028002049140008D9130008DF13000855
:10001000E5130008EB130008F113000800000000CE
:10002000000000000000000000000000F7130008BE
:1000300003140008000000000F1400081B1400083F
:1000400091140008911400089114000891140008FC
:1000500091140008911400089114000891140008EC
:1000600091140008911400089114000891140008DC
:1000700091140008911400089114000891140008CC
:1000800091140008911400089114000891140008BC
:1000900091140008911400089114000891140008AC
:1000A000911400089114000891140008911400089C
:1000B00029140008911400080000000091140008A1
:1000C00091140008000000000000000091140008D6
:1000D00000000000911400089114000800000000C6
:1000E0009114000891140008911400080000000009
:1000F0000000000000000000000000000000000000
:0C01000000000000000000005FF808F1A3
:10010C0010B5054C237833B9044B13B10448AFF345
:10011C0000800123237010BD70000020000000003F
:10012C00D82A000808B5034B1BB103490348AFF3A9
:10013C00008008BD0000000074000020D82A0008D0
:10014C0080B400AF064B1B68012B04D1044B00227A
:10015C001A60012300E000231846BD4680BC70479E
:10016C008C00002080B400AF064B1B68012B04D11F
:10017C00044B00221A60012300E000231846BD4600
:10018C0080BC70479000002080B400AF064B1B6809
:10019C00012B04D1044B00221A60012300E0002340
:1001AC001846BD4680BC70479400002080B500AF57
:1001BC00454B1B68454A1360454B1B68424A13600C
:1001CC004FF40051434801F049FC03461A46404B9A
:1001DC001A603E4B1A683C4B1B689A4216D13A4B3C
:1001EC001A683B4B1B689A4210D13B4B1A68384B30
:1001FC001B689A420AD0364B1B68374A1360344B43
:10020C001B68002B02D1354B01221A60344B1B6842
:10021C00344A1360344B1B68314A13604FF48041ED
:10022C002C4801F01BFC03461A462F4B1A602D4B31
:10023C001A682B4B1B689A4216D1294B1A682A4B09
:10024C001B689A4210D1294B1A68274B1B689A429B
:10025C000AD0254B1B68254A1360234B1B68002BC7
:10026C0002D1234B01221A60224B1B68224A1360D5
:10027C00224B1B681F4A13604FF40041154801F0D4
:10028C00EDFB03461A461D4B1A601B4B1A68194BA3
:10029C001B689A4216D1174B1A68184B1B689A4266
:1002AC0010D1174B1A68154B1B689A420AD0134B86
:1002BC001B68134A1360114B1B68002B02D1114BA6
:1002CC0001221A6000BF80BD040000200000002045
:1002DC0008000020001001400C0000208C000020C1
:1002EC001400002010000020180000201C0000202A
:1002FC009000002024000020200000202800002076
:10030C002C0000209400002080B586B000AF7860EF
:10031C00144A07F1080307CA03C31A8000237B6140
:10032C0018E001227B6902FA03F399B207F1080283
:10033C007B6813441B781A467B6942FA03F3DBB2E1
:10034C0003F00103DBB21A46074801F09EFB7B6900
:10035C0001337B617B69062BE3DD00BF00BF1837DF
:10036C00BD4680BDF02A0008000C014080B500AFEE
:10037C0001224FF480710B4801F087FB01224FF4EE
:10038C000071084801F081FB01224FF4806105489F
:10039C0001F07BFB01224FF40061024801F075FB78
:1003AC0000BF80BD0008014080B500AF00220221D3
:1003BC000E4801F06AFB002204210C4801F065FB99
:1003CC0000220821094801F060FB00221021074897
:1003DC0001F05BFB00222021044801F056FB0022B7
:1003EC004021024801F051FB00BF80BD00080140D4
:1003FC0080B582B000AF7860FFF7B8FF9A4B1B68EE
:10040C00012B74D1994B1B68994A82FB03129210F1
:10041C00DB17D31A974A1360944B1968944B83FBE0
:10042C0001239A10CB17D21A13469B0013445B007E
:10043C00CA1A904B5A608D4B1B68013B8B4A136058
:10044C008A4B1B68002B1DDA8B4B1B68884A82FB7E
:10045C0003129210DB17D31A864A1360864B196865
:10046C00834B83FB01239A10CB17D21A13469B00A4
:10047C0013445B00CA1A7F4B5A607F4B1B68013BCD
:10048C007D4A13607C4B1B68002B1DDA7B4B1B6871
:10049C00774A82FB03129210DB17D31A754A13604A
:1004AC00764B1968724B83FB01239A10CB17D21A27
:1004BC0013469B0013445B00CA1A6E4B5A606F4B79
:1004CC001B68013B6D4A13606C4B1B68002B0BD1F6
:1004DC006B4B1B68654A13606A4B1B68664A13605A
:1004EC00694B1B68654A1360642000F09BFE674BE8
:1004FC001B68012B74D1664B1B685D4A82FB03128F
:10050C009210DB17D31A5B4A9360614B1968584BF6
:10051C0083FB01239A10CB17D21A13469B0013446A
:10052C005B00CA1A534BDA60594B1B68013B584AA3
:10053C001360574B1B68002B1DDA564B1B684C4A3B
:10054C0082FB03129210DB17D31A4A4A9360514B69
:10055C001968474B83FB01239A10CB17D21A134609
:10056C009B0013445B00CA1A424BDA60494B1B6870
:10057C00013B484A1360474B1B68002B1DDA464B66
:10058C001B683B4A82FB03129210DB17D31A394AC1
:10059C009360414B1968364B83FB01239A10CB17A0
:1005AC00D21A13469B0013445B00CA1A314BDA6013
:1005BC00394B1B68013B384A1360374B1B68002BC7
:1005CC000BD12F4B1B68344A13602E4B1B68304ADF
:1005DC0013602D4B1B682F4A1360642000F036FE0D
:1005EC007B68032B3AD801A252F823F009060008C5
:1005FC002106000839060008510600081D4B1B682F
:10060C001846FFF781FE00224FF48071234801F059
:10061C003CFA24E0174B5B681846FFF775FE002286
:10062C004FF400711D4801F030FA18E0114B9B6833
:10063C001846FFF769FE00224FF48061174801F05D
:10064C0024FA0CE00B4BDB681846FFF75DFE00222A
:10065C004FF40061114801F018FA00E000BF00BF30
:10066C000837BD4680BD00BFB80000204000002008
:10067C0067666666300000204800002044000020B9
:10068C0058000020600000205C000020BC0000200E
:10069C0054000020500000204C00002000080140B5
:1006AC0080B500AF012202210E4801F0EEF90122C3
:1006BC0004210C4801F0E9F901220821094801F054
:1006CC00E4F901221021074801F0DFF90122202171
:1006DC00044801F0DAF901224021024801F0D5F971
:1006EC0000BF80BD0008014080B500AF0022022190
:1006FC000E4801F0CAF9012204210C4801F0C5F999
:10070C0001220821094801F0C0F9012210210748F3
:10071C0001F0BBF901222021044801F0B6F90022B6
:10072C004021024801F0B1F900BF80BD0008014032
:10073C0080B500AF002202210E4801F0A6F901227B
:10074C0004210C4801F0A1F901220821094801F00B
:10075C009CF901221021074801F097F90022202171
:10076C00044801F092F901224021024801F08DF970
:10077C0000BF80BD0008014080B500AF01220221FE
:10078C000E4801F082F9012204210C4801F07DF998
:10079C0000220821094801F078F9002210210748AD
:1007AC0001F073F901222021044801F06EF90122B5
:1007BC004021024801F069F900BF80BD00080140EA
:1007CC0080B500AF012202210E4801F05EF9002233
:1007DC0004210C4801F059F901220821094801F0C3
:1007EC0054F900221021074801F04FF90122202171
:1007FC00044801F04AF901224021024801F045F970
:10080C0000BF80BD0008014080B500AF984B1B684D
:10081C000E2B00F047810E2B00F3B3810C2B03D071
:10082C000D2B00F09380ACE1924B1B68012B0AD18D
:10083C00192000F0CFFC02218F4801F03EF9102165
:10084C008D4801F03AF9012204218B4801F01DF981
:10085C0001220821884801F018F90122202186483C
:10086C0001F013F901224021834801F00EF9FFF742
:10087C0067FC0346012B30D17D4B0D221A60012001
:10088C0000F0A8FC012000F0B9FC002000F0CAFC2C
:10089C00002000F0DBFC794B00221A60774B03221E
:1008AC005A60774B1B68774A82FB03129210DB1756
:1008BC00D31A724A9360724B1968724B83FB0123F3
:1008CC009A10CB17D21A13469B0013445B00CA1A1A
:1008DC006A4BDA606C4B00221A60FFF743FC03464C
:1008EC00012B24D1694B1B680133684A1360674B99
:1008FC001B68644A82FB03129210DB17D31A5F4AFF
:10090C009360624B19685F4B83FB01239A10CB17E2
:10091C00D21A13469B0013445B00CA1A574BDA6079
:10092C005A4B1B68622B02DD584B00221A60FFF7F2
:10093C002BFC0346012B40F02681544B1B68544A78
:10094C001360534B1B68534A13601CE1494B1B68E3
:10095C00012B0AD1192000F03DFC0421464801F07E
:10096C00ACF82021444801F0A8F8012202214248A9
:10097C0001F08BF8012208213F4801F086F8012292
:10098C0010213D4801F081F8012240213A4801F044
:10099C007CF8FFF7D5FB0346012B30D1344B0E22EC
:1009AC001A60012000F016FC012000F027FC00204A
:1009BC0000F038FC002000F049FC304B00221A609B
:1009CC002E4B04225A60344B1B682E4A82FB0312B6
:1009DC009210DB17D31A294A93602F4B1968294BB5
:1009EC0083FB01239A10CB17D21A13469B00134496
:1009FC005B00CA1A214BDA60234B00221A60FFF706
:100A0C00B1FB0346012B24D11D4B1B6801331C4A3F
:100A1C0013601B4B1B681B4A82FB03129210DB17E3
:100A2C00D31A164A9360164B1968164B83FB012395
:100A3C009A10CB17D21A13469B0013445B00CA1AA8
:100A4C000E4BDA600E4B1B68622B02DD0C4B002246
:100A5C001A60FFF799FB0346012B40F09680084B78
:100A6C001B680E4A13600D4B1B680D4A13608CE01B
:100A7C009C000020B0000020000801403000002045
:100A8C005C00002067666666980000205800002015
:100A9C004C0000204000002060000020500000208E
:100AAC00440000203B4B1B68012B0AD1192000F09D
:100ABC0091FB0821384801F000F84021364800F03D
:100ACC00FCFF01220221344800F0DFFF0122042147
:100ADC00314800F0DAFF012210212F4800F0D5FF39
:100AEC00012220212C4800F0D0FFFFF729FB034600
:100AFC00012B0ED1294B01221A60012000F07EFB44
:100B0C00012000F08FFB012000F0A0FB244B002201
:100B1C001A60FFF727FB0346012B24D1214B1B68DE
:100B2C000133204A13601F4B1B681F4A82FB0312C0
:100B3C009210DB17D31A1D4A93601A4B19681A4B83
:100B4C0083FB01239A10CB17D21A13469B00134434
:100B5C005B00CA1A154BDA60124B1B68622B02DD64
:100B6C00104B00221A60FFF70FFB0346012B0ED12E
:100B7C000C4B1B680E4A13600D4B1B680D4A13601F
:100B8C0005E000BF04E000BF02E000BF00E000BFD2
:100B9C0000BF80BDB0000020000801409C00002078
:100BAC009800002060000020676666663000002018
:100BBC00540000204800002080B500AFAB4B1B68F0
:100BCC00012B11D1192000F019FBA94B1B685A1CE1
:100BDC00A7490A601846FFF70BFCA54B1B68032BB3
:100BEC0002DDA34B00221A60A24B1B68013B042BB5
:100BFC0000F2A88101A252F823F000BF1D0C0008DE
:100C0C00690C00081D0D0008CB0D0008A50E00088E
:100C1C00994B1A68994B1B681A44994B1B689A425A
:100C2C000DD1FFF73DFD934B02221A60934B1B68CD
:100C3C00642202FB03F3184600F0CCFA8BE1FFF7B9
:100C4C00B3FB904B00221A608E4B00225A608D4BE6
:100C5C0000229A608B4B0022DA607CE1FFF744FDA6
:100C6C00894B1B68012B0AD1824B03221A60824BE1
:100C7C001B68642202FB03F3184600F0ABFAFFF783
:100C8C005FFA0346012B38D17A4B0C221A607F4B4A
:100C9C0005221A60002210217D4800F0F6FE01208A
:100CAC0000F098FA012000F0A9FA002000F0BAFA3E
:100CBC00002000F0CBFA734B00221A60714B022219
:100CCC005A606F4B1B68734A82FB03129210DB173E
:100CDC00D31A6C4A93606A4B19686E4B83FB0123E1
:100CEC009A10CB17D21A13469B0013445B00CA1AF6
:100CFC00644BDA605E4B00221A60FFF733FA03464E
:100D0C00012B40F021815E4B1B685D4A13601BE197
:100D1C00FFF70EFD5C4B1B68012B0AD1554B0422CF
:100D2C001A60564B1B68642202FB03F3184600F052
:100D3C0051FAFFF705FA0346012B35D14D4B0C2226
:100D4C001A6000221021524800F09FFE012000F092
:100D5C0041FA012000F052FA002000F063FA002062
:100D6C0000F074FA474B00221A60464B02225A607C
:100D7C00434B1B68474A82FB03129210DB17D31AB2
:100D8C00404A93603E4B1968424B83FB01239A10F7
:100D9C00CB17D21A13469B0013445B00CA1A394B6B
:100DAC00DA60334B00221A60FFF7DCF90346012BA3
:100DBC0040F0CC80324B1B68314A1360C6E0FFF721
:100DCC00DBFC314B1B68012B0AD12A4B05221A6024
:100DDC00294B1B68642202FB03F3184600F0FAF956
:100DEC00FFF7AEF90346012B35D1224B0C221A60CA
:100DFC0000220221264800F048FE012000F0EAF90A
:100E0C00012000F0FBF9002000F00CFA002000F0AB
:100E1C001DFA1C4B00221A601A4B02225A60184B06
:100E2C001B681C4A82FB03129210DB17D31A154A5B
:100E3C009360134B1968174B83FB01239A10CB1744
:100E4C00D21A13469B0013445B00CA1A0D4BDA608E
:100E5C00074B00221A60FFF785F90346012B77D167
:100E6C00074B1B68064A136072E000BFB4000020F9
:100E7C00980000209C0000205C00002060000020F6
:100E8C005800002030000020B0000020400000205E
:100E9C000008014067666666FFF792FC2F4B1B68E3
:100EAC00012B0AD12E4B02221A602E4B1B68642296
:100EBC0002FB03F3184600F08DF9FFF741F90346E6
:100ECC00012B35D1264B0C221A6000220221264818
:100EDC0000F0DBFD012000F07DF9012000F08EF91F
:100EEC00002000F09FF9002000F0B0F91F4B002209
:100EFC001A601E4B02225A601D4B1B681D4A82FB56
:100F0C0003129210DB17D31A184A9360184B196806
:100F1C00184B83FB01239A10CB17D21A13469B0054
:100F2C0013445B00CA1A114BDA60134B00221A608F
:100F3C00FFF718F90346012B0CD10D4B1B680C4A1B
:100F4C00136007E000BF06E000BF04E000BF02E052
:100F5C0000BF00E000BF00BF80BD00BFB00000209C
:100F6C009C000020600000200008014030000020A0
:100F7C0058000020676666669800002080B500AFB8
:100F8C0000F082FA00F01CF800F0A2F800F054F81F
:100F9C00094801F0D7F9012000F030F9012000F0E8
:100FAC0041F9012000F052F9044B01221A60FFF7BD
:100FBC0003FEFFF729FCFAE7C00000209C0000208C
:100FCC0080B590B000AF07F1180328220021184615
:100FDC0001F074FD3B1D00221A605A609A60DA60C1
:100FEC001A610223BB610123BB621023FB62002345
:100FFC007B6307F11803184600F078FD0346002BBD
:10100C0001D000F0E1F80F237B600023BB600023CC
:10101C00FB6000233B6100237B613B1D00211846D4
:10102C0000F0E4FF0346002B01D000F0CDF800BF28
:10103C004037BD4680BD000080B586B000AF07F1DB
:10104C00080300221A605A609A60DA603B4600225C
:10105C001A605A601D4B4FF080421A601B4B41F6D0
:10106C003F725A60194B00229A60184B0922DA60C1
:10107C00164B00221A61154B00229A61134801F09D
:10108C0011F90346002B01D000F09EF84FF4805369
:10109C00BB6007F1080319460C4801F0A7FA034698
:1010AC00002B01D000F090F800233B6000237B6004
:1010BC003B461946054801F073FC0346002B01D052
:1010CC0000F082F800BF1837BD4680BDC00000207C
:1010DC0080B588B000AF07F1100300221A605A6087
:1010EC009A60DA602E4B9B692D4A43F01003936192
:1010FC002B4B9B6903F01003FB60FB68284B9B692F
:10110C00274A43F004039361254B9B6903F00403C6
:10111C00BB60BB68224B9B69214A43F00803936177
:10112C001F4B9B6903F008037B607B68002240F631
:10113C007E711C4800F0A9FC00227F211A4800F0A7
:10114C00A4FC4FF460433B6100237B610123BB6132
:10115C0007F110031946154800F006FB40F67E73A4
:10116C003B6101237B610023BB610223FB6107F11F
:10117C00100319460B4800F0F7FA7F233B6101235B
:10118C007B610023BB610223FB6107F1100319464D
:10119C00054800F0E9FA00BF2037BD4680BD00BF0E
:1011AC000010024000080140000C014000100140FA
:1011BC0080B582B000AF786000F05CF8FEF7F6FF07
:1011CC0000BF0837BD4680BD80B400AF72B600BF0B
:1011DC00FEE7000080B483B000AF7860054A7B68FE
:1011EC001360054B00221A6000BF0C37BD4680BC53
:1011FC00704700BFA0000020B000002080B483B076
:10120C0000AF7860054A7B681360054B00221A60BA
:10121C0000BF0C37BD4680BC704700BFA400002047
:10122C00B400002080B483B000AF7860054A7B68BE
:10123C001360054B00221A6000BF0C37BD4680BC02
:10124C00704700BFA8000020B800002080B483B015
:10125C0000AF7860054A7B681360054B00221A606A
:10126C0000BF0C37BD4680BC704700BFAC000020EF
:10127C00BC00002080B400AF214B1B68002B0BDDA1
:10128C001F4B1B68013B1E4A13601D4B1B68002B38
:10129C0002DC1C4B01221A601B4B1B68002B0BDD64
:1012AC00194B1B68013B184A1360174B1B68002B2A
:1012BC0002DC164B01221A60154B1B68002B0BDD50
:1012CC00134B1B68013B124A1360114B1B68002B1C
:1012DC0002DC104B01221A600F4B1B68002B0BDD3C
:1012EC000D4B1B68013B0C4A13600B4B1B68002B0E
:1012FC0002DC0A4B01221A6000BFBD4680BC70475D
:10130C00A0000020B0000020A4000020B4000020A9
:10131C00A8000020B8000020AC000020BC00002079
:10132C0080B485B000AF154B9B69144A43F00103A0
:10133C009361124B9B6903F00103BB60BB680F4BBD
:10134C00DB690E4A43F08053D3610C4BDB6903F02D
:10135C0080537B607B680A4B5B68FB60FB6823F007
:10136C00E063FB60FB6843F08063FB60044AFB684E
:10137C00536000BF1437BD4680BC7047001002405C
:10138C000000014080B584B000AF78607B681B68BA
:10139C00B3F1804F13D10C4BDB690B4A43F00103C3
:1013AC00D361094BDB6903F00103FB60FB6800228E
:1013BC0000211C2000F0A1F91C2000F0BAF900BF9C
:1013CC001037BD4680BD00BF0010024080B400AF96
:1013DC00FEE780B400AFFEE780B400AFFEE780B458
:1013EC0000AFFEE780B400AFFEE780B400AF00BFF3
:1013FC00BD4680BC704780B400AF00BFBD4680BC0A
:10140C00704780B400AF00BFBD4680BC704780B54C
:10141C0000AF00F07FF800BF80BD000080B500AFCA
:10142C00024800F0DBFF00BF80BD00BFC000002001
:10143C0080B400AF00BFBD4680BC7047FFF7F8FF1B
:10144C000B480C490C4A002302E0D458C450043316
:10145C00C4188C42F9D3094A094C002301E01360EB
:10146C000432A242FBD301F005FBFFF787FD704766
:10147C000000002070000020282B000870000020C5
:10148C000C010020FEE7000080B500AF084B1B6884
:10149C00074A43F010031360032000F023F90F20D8
:1014AC0000F008F8FFF73CFF0023184680BD00BF92
:1014BC000020024080B582B000AF7860124B1A68F1
:1014CC00124B1B7819464FF47A73B3FBF1F3B2FB52
:1014DC00F3F3184600F03BF90346002B01D001232F
:1014EC000EE07B680F2B0AD8002279684FF0FF3092
:1014FC0000F003F9064A7B681360002300E0012327
:10150C0018460837BD4680BD640000206C000020E2
:10151C006800002080B400AF054B1B781A46054BC1
:10152C001B681344034A136000BFBD4680BC704760
:10153C006C0000200801002080B400AF024B1B6837
:10154C001846BD4680BC70470801002080B485B0A9
:10155C0000AF78607B6803F00703FB600C4BDB6823
:10156C00BB60BA684FF6FF031340BB60FB681A02FE
:10157C00BB68134343F0BF6343F40033BB60044ABE
:10158C00BB68D36000BF1437BD4680BC704700BF3A
:10159C0000ED00E080B400AF044BDB681B0A03F0E5
:1015AC0007031846BD4680BC704700BF00ED00E045
:1015BC0080B483B000AF0346FB7197F90730002B62
:1015CC000BDBFB7903F01F02064997F907305B0927
:1015DC00012000FA02F241F8232000BF0C37BD466F
:1015EC0080BC704700E100E080B483B000AF0346DC
:1015FC003960FB7197F90730002B0ADB3B68DAB2D4
:10160C000C4997F907301201D2B20B4483F800232E
:10161C000AE03B68DAB20849FB7903F00F03043B9C
:10162C001201D2B20B441A7600BF0C37BD4680BCF7
:10163C00704700BF00E100E000ED00E080B489B02D
:10164C0000AFF860B9607A60FB6803F00703FB61D8
:10165C00FB69C3F10703042B28BF0423BB61FB699F
:10166C000433062B02D9FB69033B00E000237B61AA
:10167C004FF0FF32BB6902FA03F3DA43BB681A403E
:10168C007B699A404FF0FF317B6901FA03F3D94330
:10169C007B680B40134318462437BD4680BC70470B
:1016AC0080B582B000AF78607B68013BB3F1807F7E
:1016BC0001D301230FE00A4A7B68013B53600F21E1
:1016CC004FF0FF30FFF790FF054B00229A60044B60
:1016DC0007221A60002318460837BD4680BD00BF9C
:1016EC0010E000E080B582B000AF78607868FFF75A
:1016FC002DFF00BF0837BD4680BD80B586B000AF5A
:10170C000346B9607A60FB7300237B61FFF742FFED
:10171C0078617A68B9687869FFF790FF024697F9A3
:10172C000F3011461846FFF75FFF00BF1837BD4654
:10173C0080BD80B582B000AF0346FB7197F90730CE
:10174C001846FFF735FF00BF0837BD4680BD80B592
:10175C0082B000AF78607868FFF7A2FF03461846A6
:10176C000837BD4680BD000080B48BB000AF7860F8
:10177C00396000237B6200233B6248E101227B6AD3
:10178C0002FA03F3FB613B681B68FA691340BB6107
:10179C00BA69FB699A4240F037813B685B68A34A9F
:1017AC0093425ED0A14A934275D8A14A934258D035
:1017BC009F4A93426FD89F4A934252D09D4A93427C
:1017CC0069D89D4A93424CD09B4A934263D89B4A1A
:1017DC00934246D0994A93425DD8122B2AD8122BA9
:1017EC0059D801A252F823F06F18000849180008C4
:1017FC005B1800089D180008A3180008A31800081F
:10180C00A3180008A3180008A3180008A3180008C0
:10181C00A3180008A3180008A3180008A3180008B0
:10182C00A3180008A3180008A318000851180008F2
:10183C0065180008824A934213D02CE03B68DB68A1
:10184C003B6229E03B68DB6804333B6224E03B6885
:10185C00DB6808333B621FE03B68DB680C333B62A0
:10186C001AE03B689B68002B02D104233B6213E017
:10187C003B689B68012B05D108233B627B68FA69A6
:10188C001A6109E008233B627B68FA695A6103E03C
:10189C0000233B6200E000BFBB69FF2B01D87B68D3
:1018AC0001E07B6804337B61BB69FF2B02D87B6A48
:1018BC009B0002E07B6A083B9B003B617B691A68DA
:1018CC000F213B6901FA03F3DB431A40396A3B6988
:1018DC0001FA03F31A437B691A603B685B6803F0F7
:1018EC008053002B00F09080564B9B69554A43F077
:1018FC0001039361534B9B6903F00103BB60BB680D
:10190C00514A7B6A9B08023352F82330FB607B6A96
:10191C0003F003039B000F2202FA03F3DB43FA6884
:10192C001340FB607B68494A93420DD07B68484A60
:10193C00934207D07B68474A934201D1022304E0CB
:10194C00032302E0012300E000237A6A02F0030281
:10195C0092009340FA681343FB603B497B6A9B08F7
:10196C000233FA6841F823203B685B6803F4801368
:10197C00002B06D0384B9A683749BB6913438B60F0
:10198C0006E0354B9A68BB69DB43334913408B60E7
:10199C003B685B6803F40013002B06D02E4BDA680F
:1019AC002D49BB691343CB6006E02B4BDA68BB694E
:1019BC00DB4329491340CB603B685B6803F400337D
:1019CC00002B06D0244B5A682349BB6913434B6048
:1019DC0006E0214B5A68BB69DB431F4913404B603F
:1019EC003B685B6803F48033002B06D01A4B1A68F3
:1019FC001949BB6913430B6006E0174B1A68BB69A6
:101A0C00DB43154913400B607B6A01337B623B68F7
:101A1C001A687B6A22FA03F3002B7FF4AFAE00BF87
:101A2C0000BF2C37BD4680BC704700BF0000321091
:101A3C0000003110000022100000211000001210D4
:101A4C00000011100010024000000140000801408D
:101A5C00000C0140001001400004014080B485B02E
:101A6C0000AF78600B467B807B689A687B8813405C
:101A7C00002B02D00123FB7301E00023FB73FB7BE3
:101A8C0018461437BD4680BC704780B483B000AF95
:101A9C0078600B467B8013467B707B78002B03D0E1
:101AAC007A887B681A6103E07B881A047B681A6168
:101ABC0000BF0C37BD4680BC704780B485B000AF0A
:101ACC0078600B467B807B68DB68FB607A88FB6800
:101ADC0013401A04FB68D9437B880B401A437B687C
:101AEC001A6100BF1437BD4680BC704780B586B004
:101AFC0000AF78607B68002B01D101236CE27B681E
:101B0C001B6803F00103002B00F08780924B5B688D
:101B1C0003F00C03042B0CD08F4B5B6803F00C030D
:101B2C00082B12D18C4B5B6803F48033B3F5803FE8
:101B3C000BD1894B1B6803F40033002B6CD07B68F2
:101B4C005B68002B68D1012346E27B685B68B3F5C8
:101B5C00803F06D1804B1B687F4A43F4803313606F
:101B6C002EE07B685B68002B0CD17B4B1B687A4AA0
:101B7C0023F480331360784B1B68774A23F480235B
:101B8C0013601DE07B685B68B3F5A02F0CD1724B22
:101B9C001B68714A43F4802313606F4B1B686E4AB9
:101BAC0043F4803313600BE06B4B1B686A4A23F4DD
:101BBC0080331360684B1B68674A23F480231360DF
:101BCC007B685B68002B13D0FFF7B6FC386108E02C
:101BDC00FFF7B2FC02463B69D31A642B01D90323ED
:101BEC00FAE15D4B1B6803F40033002BF0D014E0DA
:101BFC00FFF7A2FC386108E0FFF79EFC02463B6948
:101C0C00D31A642B01D90323E6E1534B1B6803F46D
:101C1C000033002BF0D100E000BF7B681B6803F0A1
:101C2C000203002B63D04C4B5B6803F00C03002BBE
:101C3C000BD0494B5B6803F00C03082B1CD1464BB3
:101C4C005B6803F48033002B16D1434B1B6803F005
:101C5C000203002B05D07B681B69012B01D00123EB
:101C6C00BAE13D4B1B6823F0F8027B685B69DB0033
:101C7C00394913430B603AE07B681B69002B20D079
:101C8C00364B01221A60FFF757FC386108E0FFF76A
:101C9C0053FC02463B69D31A022B01D903239BE167
:101CAC002D4B1B6803F00203002BF0D02A4B1B6852
:101CBC0023F0F8027B685B69DB00274913430B6058
:101CCC0015E0264B00221A60FFF736FC386108E05D
:101CDC00FFF732FC02463B69D31A022B01D90323CE
:101CEC007AE11D4B1B6803F00203002BF0D17B68DB
:101CFC001B6803F00803002B3AD07B689B69002B10
:101D0C0019D0174B01221A60FFF716FC386108E056
:101D1C00FFF712FC02463B69D31A022B01D90323AD
:101D2C005AE10D4B5B6A03F00203002BF0D001204B
:101D3C0000F09AFA1CE00A4B00221A60FFF7FCFB39
:101D4C0038610FE0FFF7F8FB02463B69D31A022B10
:101D5C0008D9032340E100BF0010024000004242BA
:101D6C00800442429E4B5B6A03F00203002BE9D1D4
:101D7C007B681B6803F00403002B00F0A680002393
:101D8C00FB75974BDB6903F08053002B0DD1944B03
:101D9C00DB69934A43F08053D361914BDB6903F0C9
:101DAC008053BB60BB680123FB758E4B1B6803F42F
:101DBC008073002B18D18B4B1B688A4A43F48073B9
:101DCC001360FFF7B9FB386108E0FFF7B5FB02467B
:101DDC003B69D31A642B01D90323FDE0814B1B68AB
:101DEC0003F48073002BF0D07B68DB68012B06D1E9
:101DFC007B4B1B6A7A4A43F0010313622DE07B682C
:101E0C00DB68002B0CD1764B1B6A754A23F001035F
:101E1C001362734B1B6A724A23F0040313621CE0B7
:101E2C007B68DB68052B0CD16D4B1B6A6C4A43F04D
:101E3C00040313626A4B1B6A694A43F00103136281
:101E4C000BE0674B1B6A664A23F001031362644B79
:101E5C001B6A634A23F0040313627B68DB68002B64
:101E6C0015D0FFF769FB38610AE0FFF765FB024606
:101E7C003B69D31A41F28832934201D90323ABE078
:101E8C00574B1B6A03F00203002BEED014E0FFF754
:101E9C0053FB38610AE0FFF74FFB02463B69D31A4C
:101EAC0041F28832934201D9032395E04C4B1B6AD3
:101EBC0003F00203002BEED1FB7D012B05D1484B27
:101ECC00DB69474A23F08053D3617B68DB69002BC5
:101EDC0000F08180424B5B6803F00C03082B61D04F
:101EEC007B68DB69022B46D13F4B00221A60FFF75F
:101EFC0023FB386108E0FFF71FFB02463B69D31A4E
:101F0C00022B01D9032367E0354B1B6803F00073E8
:101F1C00002BF0D17B681B6AB3F5803F08D1304BA6
:101F2C005B6823F400327B689B682D4913434B603C
:101F3C002B4B5B6823F474127B68196A7B685B6AB1
:101F4C000B43274913434B60274B01221A60FFF7C1
:101F5C00F3FA386108E0FFF7EFFA02463B69D31A4F
:101F6C00022B01D9032337E01D4B1B6803F00073D0
:101F7C00002BF0D02FE01C4B00221A60FFF7DCFA8C
:101F8C00386108E0FFF7D8FA02463B69D31A022BF6
:101F9C0001D9032320E0124B1B6803F00073002BC4
:101FAC00F0D118E07B68DB69012B01D1012313E030
:101FBC000B4B5B68FB60FB6803F480327B681B6A2D
:101FCC009A4206D1FB6803F470127B685B6A9A42F2
:101FDC0001D0012300E0002318461837BD4680BD10
:101FEC0000100240007000406000424280B584B096
:101FFC0000AF786039607B68002B01D10123D0E001
:10200C006A4B1B6803F007033A689A4210D9674B76
:10201C001B6823F0070265493B6813430B60634B55
:10202C001B6803F007033A689A4201D00123B8E019
:10203C007B681B6803F00203002B20D07B681B68B5
:10204C0003F00403002B05D0594B5B68584A43F44A
:10205C00E06353607B681B6803F00803002B05D01A
:10206C00534B5B68524A43F460535360504B5B686C
:10207C0023F0F0027B689B684D4913434B607B68EF
:10208C001B6803F00103002B40D07B685B68012BBD
:10209C0007D1474B1B6803F40033002B15D10123E8
:1020AC007FE07B685B68022B07D1414B1B6803F018
:1020BC000073002B09D1012373E03D4B1B6803F027
:1020CC000203002B01D101236BE0394B5B6823F039
:1020DC0003027B685B68364913434B60FFF72CFAAD
:1020EC00F8600AE0FFF728FA0246FB68D31A41F2BF
:1020FC008832934201D9032353E02D4B5B6803F0E4
:10210C000C027B685B689B009A42EBD1274B1B68E7
:10211C0003F007033A689A4210D2244B1B6823F051
:10212C00070222493B6813430B60204B1B6803F0EA
:10213C0007033A689A4201D0012332E07B681B689E
:10214C0003F00403002B08D0194B5B6823F4E06206
:10215C007B68DB68164913434B607B681B6803F094
:10216C000803002B09D0124B5B6823F460527B6888
:10217C001B69DB000E4913434B6000F021F802464B
:10218C000B4B5B681B0903F00F030A49CB5C22FA6B
:10219C0003F3094A1360094B1B681846FFF78AF9C9
:1021AC00002318461037BD4680BD00BF00200240FA
:1021BC0000100240FC2A0008640000206800002087
:1021CC0080B487B000AF0023FB600023BB6000230A
:1021DC007B6100237B6000233B611E4B5B68FB60D3
:1021EC00FB6803F00C03042B02D0082B03D027E070
:1021FC00194B3B6127E0FB689B0C03F00F03174A5C
:10220C00D35C7B60FB6803F48033002B10D0114B44
:10221C005B685B0C03F00103114AD35CBB607B6809
:10222C000D4A02FB03F2BB68B2FBF3F37B6104E0E3
:10223C007B680C4A02FB03F37B617B693B6102E028
:10224C00054B3B6100BF3B6918461C37BD4680BC43
:10225C00704700BF0010024000127A000C2B0008DF
:10226C001C2B000800093D0080B485B000AF7860DD
:10227C000A4B1B680A4AA2FB03235B0A7A6802FB1F
:10228C0003F3FB6000BFFB685A1EFA60002BF9D108
:10229C0000BF00BF1437BD4680BC704764000020EF
:1022AC00D34D621080B582B000AF78607B68002B94
:1022BC0001D1012341E07B6893F83D30DBB2002B68
:1022CC0006D17B68002283F83C207868FFF75AF827
:1022DC007B68022283F83D207B681A687B68043394
:1022EC001946104600F06EFA7B68012283F84620EE
:1022FC007B68012283F83E207B68012283F83F2013
:10230C007B68012283F840207B68012283F84120FE
:10231C007B68012283F842207B68012283F84320EA
:10232C007B68012283F844207B68012283F84520D6
:10233C007B68012283F83D20002318460837BD46F0
:10234C0080BD000080B485B000AF78607B6893F8E6
:10235C003D30DBB2012B01D0012335E07B6802223A
:10236C0083F83D207B681B68DA687B681B6842F049
:10237C000102DA607B681B68164A934209D07B68BD
:10238C001B68B3F1804F04D07B681B68124A9342E0
:10239C0011D17B681B689B6803F00703FB60FB682B
:1023AC00062B10D07B681B681A687B681B6842F090
:1023BC0001021A6007E07B681B681A687B681B685F
:1023CC0042F001021A60002318461437BD4680BC47
:1023DC00704700BF002C01400004004080B582B063
:1023EC0000AF78607B681B681B6903F00203022B4B
:1023FC0022D17B681B68DB6803F00203022B1BD124
:10240C007B681B686FF002021A617B6801221A77E5
:10241C007B681B689B6903F00303002B03D078686F
:10242C0000F0B4F905E0786800F0A7F9786800F0DE
:10243C00B6F97B6800221A777B681B681B6903F06E
:10244C000403042B22D17B681B68DB6803F00403B4
:10245C00042B1BD17B681B686FF004021A617B682C
:10246C0002221A777B681B689B6903F44073002B6C
:10247C0003D0786800F08AF905E0786800F07DF9FF
:10248C00786800F08CF97B6800221A777B681B68EF
:10249C001B6903F00803082B22D17B681B68DB68DF
:1024AC0003F00803082B1BD17B681B686FF0080234
:1024BC001A617B6804221A777B681B68DB6903F05E
:1024CC000303002B03D0786800F060F905E078680E
:1024DC0000F053F9786800F062F97B6800221A77F3
:1024EC007B681B681B6903F01003102B22D17B68DF
:1024FC001B68DB6803F01003102B1BD17B681B6877
:10250C006FF010021A617B6808221A777B681B68CF
:10251C00DB6903F44073002B03D0786800F036F9C4
:10252C0005E0786800F029F9786800F038F97B68E4
:10253C0000221A777B681B681B6903F00103012BCF
:10254C000ED17B681B68DB6803F00103012B07D1FC
:10255C007B681B686FF001021A617868FEF728FE31
:10256C007B681B681B6903F08003802B0ED17B6892
:10257C001B68DB6803F08003802B07D17B681B682A
:10258C006FF080021A61786800F06BFA7B681B6848
:10259C001B6903F04003402B0ED17B681B68DB6882
:1025AC0003F04003402B07D17B681B686FF040029F
:1025BC001A61786800F0FCF87B681B681B6903F0F3
:1025CC002003202B0ED17B681B68DB6803F02003F3
:1025DC00202B07D17B681B686FF020021A6178688A
:1025EC0000F036FA00BF0837BD4680BD80B584B018
:1025FC0000AF786039600023FB737B6893F83C3044
:10260C00012B01D10223B4E07B68012283F83C202A
:10261C007B68022283F83D207B681B689B68BB604B
:10262C00BB6823F07703BB60BB6823F47F43BB60BC
:10263C007B681B68BA689A603B681B68B3F5005FDF
:10264C003ED0B3F5005F00F28780B3F5805F00F0F9
:10265C008680B3F5805F7FD8702B1AD0702B7BD817
:10266C00602B50D0602B77D8502B3CD0502B73D88C
:10267C00402B58D0402B6FD8302B64D0302B6BD8DC
:10268C00202B60D0202B67D8002B5CD0102B5AD07D
:10269C0062E07B6818683B6899683B685A683B68DD
:1026AC00DB6800F05EF97B681B689B68BB60BB68ED
:1026BC0043F07703BB607B681B68BA689A604FE095
:1026CC007B6818683B6899683B685A683B68DB68AC
:1026DC0000F047F97B681B689A687B681B6842F4BA
:1026EC0080429A603CE07B6818683B6859683B689C
:1026FC00DB681A4600F0BEF87B681B685021184650
:10270C0000F015F92CE07B6818683B6859683B6849
:10271C00DB681A4600F0DCF87B681B686021184601
:10272C0000F005F91CE07B6818683B6859683B6849
:10273C00DB681A4600F09EF87B681B68402118463F
:10274C0000F0F5F80CE07B681A683B681B681946CA
:10275C00104600F0ECF803E00123FB7300E000BF2F
:10276C007B68012283F83D207B68002283F83C20A3
:10277C00FB7B18461037BD4680BD80B483B000AFDC
:10278C00786000BF0C37BD4680BC704780B483B006
:10279C0000AF786000BF0C37BD4680BC704780B47A
:1027AC0083B000AF786000BF0C37BD4680BC70476B
:1027BC0080B483B000AF786000BF0C37BD4680BCDE
:1027CC007047000080B485B000AF786039607B68DA
:1027DC001B68FB607B68254A934207D07B68B3F18A
:1027EC00804F03D07B68224A934208D1FB6823F0C8
:1027FC007003FB603B685B68FA681343FB607B68A3
:10280C001A4A934207D07B68B3F1804F03D07B68A0
:10281C00174A934208D1FB6823F44073FB603B6872
:10282C00DB68FA681343FB60FB6823F080023B68AB
:10283C005B691343FB607B68FA681A603B689A68B3
:10284C007B68DA623B681A687B689A627B68074A25
:10285C00934203D13B681A697B681A637B68012237
:10286C005A6100BF1437BD4680BC7047002C014034
:10287C000004004080B487B000AFF860B9607A60A3
:10288C00FB681B6A7B61FB681B6A23F00102FB6817
:10289C001A62FB689B693B613B6923F0F0033B6167
:1028AC007B681B013A6913433B617B6923F00A0384
:1028BC007B617A69BB6813437B61FB683A699A61F7
:1028CC00FB687A691A6200BF1C37BD4680BC704732
:1028DC0080B487B000AFF860B9607A60FB681B6A9F
:1028EC007B61FB681B6A23F01002FB681A62FB68B1
:1028FC009B693B613B6923F470433B617B681B0321
:10290C003A6913433B617B6923F0A0037B61BB688D
:10291C001B017A6913437B61FB683A699A61FB6816
:10292C007A691A6200BF1C37BD4680BC704780B400
:10293C0085B000AF786039607B689B68FB60FB6892
:10294C0023F07003FB603A68FB68134343F0070302
:10295C00FB607B68FA689A6000BF1437BD4680BC88
:10296C00704780B487B000AFF860B9607A603B60A4
:10297C00FB689B687B617B6923F47F437B613B68CD
:10298C001A027B681A43BB6813437A6913437B6151
:10299C00FB687A699A6000BF1C37BD4680BC7047E3
:1029AC0080B485B000AF786039607B6893F83C30B8
:1029BC00012B01D1022341E07B68012283F83C20EA
:1029CC007B68022283F83D207B681B685B68FB6098
:1029DC007B681B689B68BB60FB6823F07003FB6023
:1029EC003B681B68FA681343FB607B681B68FA68DA
:1029FC005A607B681B68144A934209D07B681B6839
:102A0C00B3F1804F04D07B681B68104A93420CD101
:102A1C00BB6823F08003BB603B685B68BA681343F8
:102A2C00BB607B681B68BA689A607B68012283F87C
:102A3C003D207B68002283F83C2000231846143785
:102A4C00BD4680BC704700BF002C01400004004014
:102A5C0080B483B000AF786000BF0C37BD4680BC3B
:102A6C00704780B483B000AF786000BF0C37BD46B0
:102A7C0080BC704770B500260C4D0D4C641BA41027
:102A8C00A64209D100F022F800260A4D0A4C641B1C
:102A9C00A410A64205D170BD55F8043B98470136E9
:102AAC00EEE755F8043B98470136F2E7202B000877
:102ABC00202B0008202B0008242B0008034602447E
:102ACC00934200D1704703F8011BF9E7F8B500BF3A
:102ADC00F8BC08BC9E467047F8B500BFF8BC08BCF3
:042AEC009E4670474B
:102AF000C0F9A4B0999282F8809000000000000014
:102B0000000000000102030406070809020304058F
:102B1000060708090A0B0C0D0E0F10100102000029
:042B20003101000877
:042B24000D01000897
:102B28000100000001000000010000000100000099
:102B38000100000001000000010000000100000089
:102B48000100000001000000010000000100000079
:102B58000000000005000000000000000300000065
:102B6800050000000200000003000000050000004E
:102B78000200000003000000050000000200000041
:102B8800030000000024F400100000000100000011
:040000050800144992
:00000001FF
